{
  "contractName": "Testament",
  "abi": [
    {
      "inputs": [],
      "stateMutability": "nonpayable",
      "type": "constructor"
    },
    {
      "anonymous": false,
      "inputs": [
        {
          "indexed": true,
          "internalType": "address",
          "name": "owner",
          "type": "address"
        },
        {
          "indexed": true,
          "internalType": "address",
          "name": "heir",
          "type": "address"
        },
        {
          "indexed": false,
          "internalType": "uint256",
          "name": "amount",
          "type": "uint256"
        }
      ],
      "name": "createTestament",
      "type": "event"
    },
    {
      "anonymous": false,
      "inputs": [
        {
          "indexed": true,
          "internalType": "address",
          "name": "owner",
          "type": "address"
        },
        {
          "indexed": true,
          "internalType": "address",
          "name": "heir",
          "type": "address"
        },
        {
          "indexed": false,
          "internalType": "uint256",
          "name": "amount",
          "type": "uint256"
        }
      ],
      "name": "reportTestament",
      "type": "event"
    },
    {
      "inputs": [],
      "name": "manager",
      "outputs": [
        {
          "internalType": "address",
          "name": "",
          "type": "address"
        }
      ],
      "stateMutability": "view",
      "type": "function"
    },
    {
      "inputs": [
        {
          "internalType": "address",
          "name": "heir",
          "type": "address"
        }
      ],
      "name": "create",
      "outputs": [],
      "stateMutability": "payable",
      "type": "function"
    },
    {
      "inputs": [
        {
          "internalType": "address",
          "name": "owner",
          "type": "address"
        }
      ],
      "name": "getTestament",
      "outputs": [
        {
          "internalType": "address",
          "name": "heir",
          "type": "address"
        },
        {
          "internalType": "uint256",
          "name": "amount",
          "type": "uint256"
        }
      ],
      "stateMutability": "view",
      "type": "function"
    },
    {
      "inputs": [
        {
          "internalType": "address",
          "name": "owner",
          "type": "address"
        }
      ],
      "name": "report",
      "outputs": [],
      "stateMutability": "nonpayable",
      "type": "function"
    }
  ],
  "bytecode": "0x608060405234801561001057600080fd5b50336000806101000a81548173ffffffffffffffffffffffffffffffffffffffff021916908373ffffffffffffffffffffffffffffffffffffffff160217905550610aa5806100606000396000f3fe60806040526004361061003f5760003560e01c80631af08c8b14610044578063481c6a75146100825780639ed93318146100ad578063e053ea31146100c9575b600080fd5b34801561005057600080fd5b5061006b600480360381019061006691906107d4565b6100f2565b604051610079929190610829565b60405180910390f35b34801561008e57600080fd5b5061009761019e565b6040516100a49190610852565b60405180910390f35b6100c760048036038101906100c291906107d4565b6101c2565b005b3480156100d557600080fd5b506100f060048036038101906100eb91906107d4565b6103b2565b005b600080600160008473ffffffffffffffffffffffffffffffffffffffff1673ffffffffffffffffffffffffffffffffffffffff16815260200190815260200160002060009054906101000a900473ffffffffffffffffffffffffffffffffffffffff16600260008573ffffffffffffffffffffffffffffffffffffffff1673ffffffffffffffffffffffffffffffffffffffff1681526020019081526020016000205491509150915091565b60008054906101000a900473ffffffffffffffffffffffffffffffffffffffff1681565b60003411610205576040517f08c379a00000000000000000000000000000000000000000000000000000000081526004016101fc906108ca565b60405180910390fd5b6000600260003373ffffffffffffffffffffffffffffffffffffffff1673ffffffffffffffffffffffffffffffffffffffff168152602001908152602001600020541115610288576040517f08c379a000000000000000000000000000000000000000000000000000000000815260040161027f90610936565b60405180910390fd5b80600160003373ffffffffffffffffffffffffffffffffffffffff1673ffffffffffffffffffffffffffffffffffffffff16815260200190815260200160002060006101000a81548173ffffffffffffffffffffffffffffffffffffffff021916908373ffffffffffffffffffffffffffffffffffffffff16021790555034600260003373ffffffffffffffffffffffffffffffffffffffff1673ffffffffffffffffffffffffffffffffffffffff168152602001908152602001600020819055508073ffffffffffffffffffffffffffffffffffffffff163373ffffffffffffffffffffffffffffffffffffffff167fb95aea02c9e9e0d829681aaea2d60c78ea85a710fbc2a84c3dc8015b63be8161346040516103a79190610956565b60405180910390a350565b60008054906101000a900473ffffffffffffffffffffffffffffffffffffffff1673ffffffffffffffffffffffffffffffffffffffff163373ffffffffffffffffffffffffffffffffffffffff1614610440576040517f08c379a0000000000000000000000000000000000000000000000000000000008152600401610437906109bd565b60405180910390fd5b6000600260008373ffffffffffffffffffffffffffffffffffffffff1673ffffffffffffffffffffffffffffffffffffffff16815260200190815260200160002054116104c2576040517f08c379a00000000000000000000000000000000000000000000000000000000081526004016104b990610a4f565b60405180910390fd5b600160008273ffffffffffffffffffffffffffffffffffffffff1673ffffffffffffffffffffffffffffffffffffffff16815260200190815260200160002060009054906101000a900473ffffffffffffffffffffffffffffffffffffffff1673ffffffffffffffffffffffffffffffffffffffff168173ffffffffffffffffffffffffffffffffffffffff167fd68bf932ffc1911f7bf6436ea901774e048d4753e1110cb6d4401970188cff11600260008573ffffffffffffffffffffffffffffffffffffffff1673ffffffffffffffffffffffffffffffffffffffff168152602001908152602001600020546040516105bd9190610956565b60405180910390a3600160008273ffffffffffffffffffffffffffffffffffffffff1673ffffffffffffffffffffffffffffffffffffffff16815260200190815260200160002060009054906101000a900473ffffffffffffffffffffffffffffffffffffffff1673ffffffffffffffffffffffffffffffffffffffff166108fc600260008473ffffffffffffffffffffffffffffffffffffffff1673ffffffffffffffffffffffffffffffffffffffff168152602001908152602001600020549081150290604051600060405180830381858888f193505050501580156106a9573d6000803e3d6000fd5b506000600260008373ffffffffffffffffffffffffffffffffffffffff1673ffffffffffffffffffffffffffffffffffffffff168152602001908152602001600020819055506000600160008373ffffffffffffffffffffffffffffffffffffffff1673ffffffffffffffffffffffffffffffffffffffff16815260200190815260200160002060006101000a81548173ffffffffffffffffffffffffffffffffffffffff021916908373ffffffffffffffffffffffffffffffffffffffff16021790555050565b600080fd5b600073ffffffffffffffffffffffffffffffffffffffff82169050919050565b60006107a182610776565b9050919050565b6107b181610796565b81146107bc57600080fd5b50565b6000813590506107ce816107a8565b92915050565b6000602082840312156107ea576107e9610771565b5b60006107f8848285016107bf565b91505092915050565b61080a81610796565b82525050565b6000819050919050565b61082381610810565b82525050565b600060408201905061083e6000830185610801565b61084b602083018461081a565b9392505050565b60006020820190506108676000830184610801565b92915050565b600082825260208201905092915050565b7f506c6561736520656e746572206d6f7265207468616e2030204554482e000000600082015250565b60006108b4601d8361086d565b91506108bf8261087e565b602082019050919050565b600060208201905081810360008301526108e3816108a7565b9050919050565b7f596f7520616c7265616479206861766520612074657374616d656e742e000000600082015250565b6000610920601d8361086d565b915061092b826108ea565b602082019050919050565b6000602082019050818103600083015261094f81610913565b9050919050565b600060208201905061096b600083018461081a565b92915050565b7f596f7520617265206e6f7420746865206d616e616765722e0000000000000000600082015250565b60006109a760188361086d565b91506109b282610971565b602082019050919050565b600060208201905081810360008301526109d68161099a565b9050919050565b7f54686973206f776e657220646f6573206e6f742068617665206120746573746160008201527f6d656e742e000000000000000000000000000000000000000000000000000000602082015250565b6000610a3960258361086d565b9150610a44826109dd565b604082019050919050565b60006020820190508181036000830152610a6881610a2c565b905091905056fea26469706673582212202ad81449038b7db9d128484c3f95a00701506086bae95190a73a195ee9f9db3b64736f6c63430008110033",
  "immutableReferences": {},
  "source": "// SPDX-License-Identifier: U\r\npragma solidity ^0.8.13;\r\n\r\ncontract Testament {\r\n    //  Create a Variable\r\n    address public manager;\r\n    mapping(address => address) _heir; // \r\n    mapping(address => uint256) balance; // \r\n\r\n    // Create Event for Create Testament\r\n    event createTestament(\r\n        address indexed owner,\r\n        address indexed heir,\r\n        uint256 amount\r\n    ); //  Event   \r\n\r\n    // Create Event for Report\r\n    event reportTestament(\r\n        address indexed owner,\r\n        address indexed heir,\r\n        uint256 amount\r\n    ); //  Event   \r\n\r\n    // Create a Constructor\r\n    constructor() {\r\n        manager = msg.sender; //  Deploy Contract \r\n    }\r\n\r\n    // Function for Owner Create Testament\r\n    function create(address heir) public payable {\r\n        require(msg.value > 0, \"Please enter more than 0 ETH.\"); //  requirement  0 ETH\r\n        require(balance[msg.sender] <= 0, \"You already have a testament.\"); //  requirement \r\n        _heir[msg.sender] = heir; // \r\n        balance[msg.sender] = msg.value; // \r\n        emit createTestament(msg.sender, heir, msg.value); //  Event\r\n    }\r\n\r\n    // Funcction getTestament\r\n    function getTestament(address owner)\r\n        public\r\n        view\r\n        returns (address heir, uint256 amount)\r\n    {\r\n        //  Function \r\n        return (_heir[owner], balance[owner]); //    \r\n    }\r\n\r\n    // Function for Manager to Report Testament to Heir\r\n    function report(address owner) public {\r\n        require(msg.sender == manager, \"You are not the manager.\"); //  requirement \r\n        require(balance[owner] > 0, \"This owner does not have a testament.\"); //  requirement \r\n        emit reportTestament(owner, _heir[owner], balance[owner]); //  Event reportTestament\r\n        payable(_heir[owner]).transfer(balance[owner]); // \r\n        balance[owner] = 0; // \r\n        _heir[owner] = address(0); // \r\n    }\r\n\r\n}\r\n",
  "sourcePath": "C:\\Users\\Nut\\OneDrive\\\\Solidity\\my-DAPP\\contracts\\Testament.sol",
  "compiler": {
    "name": "solc",
    "version": "0.8.17+commit.8df45f5f.Emscripten.clang"
  },
  "schemaVersion": "3.4.11",
  "updatedAt": "2023-01-02T19:21:17.475Z",
  "devdoc": {
    "kind": "dev",
    "methods": {},
    "version": 1
  },
  "userdoc": {
    "kind": "user",
    "methods": {},
    "version": 1
  }
}